{
  "contractName": "rps",
  "abi": [
    {
      "inputs": [],
      "payable": false,
      "stateMutability": "nonpayable",
      "type": "constructor"
    },
    {
      "anonymous": false,
      "inputs": [
        {
          "indexed": false,
          "name": "hand",
          "type": "uint8"
        },
        {
          "indexed": false,
          "name": "rndStr",
          "type": "string"
        },
        {
          "indexed": false,
          "name": "hash",
          "type": "bytes32"
        }
      ],
      "name": "HostSubmit",
      "type": "event"
    },
    {
      "anonymous": false,
      "inputs": [
        {
          "indexed": false,
          "name": "hand",
          "type": "uint8"
        },
        {
          "indexed": false,
          "name": "rndStr",
          "type": "string"
        },
        {
          "indexed": false,
          "name": "hash",
          "type": "bytes32"
        }
      ],
      "name": "GuestSubmit",
      "type": "event"
    },
    {
      "anonymous": false,
      "inputs": [
        {
          "indexed": false,
          "name": "result",
          "type": "uint256"
        }
      ],
      "name": "GameResult",
      "type": "event"
    },
    {
      "anonymous": false,
      "inputs": [
        {
          "indexed": false,
          "name": "from",
          "type": "address"
        },
        {
          "indexed": false,
          "name": "to",
          "type": "address"
        },
        {
          "indexed": false,
          "name": "sendAmount",
          "type": "uint256"
        }
      ],
      "name": "MoneyMove",
      "type": "event"
    },
    {
      "anonymous": false,
      "inputs": [
        {
          "indexed": false,
          "name": "to",
          "type": "address"
        },
        {
          "indexed": false,
          "name": "backAmount",
          "type": "uint256"
        }
      ],
      "name": "MoneyBack",
      "type": "event"
    },
    {
      "constant": false,
      "inputs": [
        {
          "name": "hashValue",
          "type": "bytes32"
        }
      ],
      "name": "makeGame",
      "outputs": [],
      "payable": true,
      "stateMutability": "payable",
      "type": "function"
    },
    {
      "constant": false,
      "inputs": [
        {
          "name": "hashValue",
          "type": "bytes32"
        },
        {
          "name": "hand",
          "type": "uint8"
        },
        {
          "name": "rndStr",
          "type": "string"
        }
      ],
      "name": "joinGame",
      "outputs": [],
      "payable": true,
      "stateMutability": "payable",
      "type": "function"
    },
    {
      "constant": false,
      "inputs": [
        {
          "name": "hand",
          "type": "uint8"
        },
        {
          "name": "rndStr",
          "type": "string"
        }
      ],
      "name": "hostSubmitHand",
      "outputs": [],
      "payable": false,
      "stateMutability": "nonpayable",
      "type": "function"
    },
    {
      "constant": true,
      "inputs": [],
      "name": "getGameResult",
      "outputs": [
        {
          "name": "",
          "type": "uint8"
        }
      ],
      "payable": false,
      "stateMutability": "view",
      "type": "function"
    },
    {
      "constant": true,
      "inputs": [],
      "name": "getHostSubmitHash",
      "outputs": [
        {
          "name": "",
          "type": "bytes32"
        }
      ],
      "payable": false,
      "stateMutability": "view",
      "type": "function"
    },
    {
      "constant": true,
      "inputs": [],
      "name": "getGuestSubmitHash",
      "outputs": [
        {
          "name": "",
          "type": "bytes32"
        }
      ],
      "payable": false,
      "stateMutability": "view",
      "type": "function"
    },
    {
      "constant": true,
      "inputs": [],
      "name": "getHostSelectHash",
      "outputs": [
        {
          "name": "",
          "type": "bytes32"
        }
      ],
      "payable": false,
      "stateMutability": "view",
      "type": "function"
    },
    {
      "constant": true,
      "inputs": [],
      "name": "getGuestSelectHash",
      "outputs": [
        {
          "name": "",
          "type": "bytes32"
        }
      ],
      "payable": false,
      "stateMutability": "view",
      "type": "function"
    },
    {
      "constant": true,
      "inputs": [
        {
          "name": "byteA",
          "type": "bytes"
        }
      ],
      "name": "getHashValue",
      "outputs": [
        {
          "name": "",
          "type": "bytes32"
        }
      ],
      "payable": false,
      "stateMutability": "pure",
      "type": "function"
    }
  ],
  "bytecode": "0x60806040526000600260146101000a81548160ff0219169083151502179055506000600260156101000a81548160ff021916908360ff16021790555034801561004757600080fd5b50336000806101000a81548173ffffffffffffffffffffffffffffffffffffffff021916908373ffffffffffffffffffffffffffffffffffffffff16021790555061110b806100976000396000f300608060405260043610610099576000357c0100000000000000000000000000000000000000000000000000000000900463ffffffff1680632e5e5b151461009e5780635205a52f146100c2578063762b81fb146101385780638a52a7bb146101bd5780639ed62ad014610234578063a63a82d514610267578063b3fb14ad1461029a578063d8a0d9e0146102cb578063e7d091b2146102fe575b600080fd5b6100c06004803603810190808035600019169060200190929190505050610331565b005b3480156100ce57600080fd5b50610136600480360381019080803560ff169060200190929190803590602001908201803590602001908080601f0160208091040260200160405190810160405280939291908181526020018383808284378201915050505050509192919290505050610385565b005b34801561014457600080fd5b5061019f600480360381019080803590602001908201803590602001908080601f01602080910402602001604051908101604052809392919081815260200183838082843782019150505050505091929192905050506104a5565b60405180826000191660001916815260200191505060405180910390f35b6102326004803603810190808035600019169060200190929190803560ff169060200190929190803590602001908201803590602001908080601f0160208091040260200160405190810160405280939291908181526020018383808284378201915050505050509192919290505050610511565b005b34801561024057600080fd5b50610249610634565b60405180826000191660001916815260200191505060405180910390f35b34801561027357600080fd5b5061027c61063e565b60405180826000191660001916815260200191505060405180910390f35b3480156102a657600080fd5b506102af610648565b604051808260ff1660ff16815260200191505060405180910390f35b3480156102d757600080fd5b506102e061065f565b60405180826000191660001916815260200191505060405180910390f35b34801561030a57600080fd5b50610313610669565b60405180826000191660001916815260200191505060405180910390f35b33600160006101000a81548173ffffffffffffffffffffffffffffffffffffffff021916908373ffffffffffffffffffffffffffffffffffffffff1602179055503460088190555061038281610673565b50565b600160009054906101000a900473ffffffffffffffffffffffffffffffffffffffff1673ffffffffffffffffffffffffffffffffffffffff163373ffffffffffffffffffffffffffffffffffffffff161415156103e157600080fd5b6103eb828261069d565b156104105781600760006101000a81548160ff021916908360ff16021790555061042c565b60028060156101000a81548160ff021916908360ff1602179055505b6000600260159054906101000a900460ff1660ff1614156104505761044f6107b4565b5b7fdd70a6ea8a03765f9fb41f847122dcaab5764ecb37187278123ecb3a09180088600260159054906101000a900460ff16604051808260ff16815260200191505060405180910390a16104a161087a565b5050565b6000816040518082805190602001908083835b6020831015156104dd57805182526020820191506020810190506020830392506104b8565b6001836020036101000a03801982511681845116808217855250505050505090500191505060405180910390209050919050565b600160009054906101000a900473ffffffffffffffffffffffffffffffffffffffff1673ffffffffffffffffffffffffffffffffffffffff163373ffffffffffffffffffffffffffffffffffffffff161415151561056e57600080fd5b6008543414151561057e57600080fd5b33600260006101000a81548173ffffffffffffffffffffffffffffffffffffffff021916908373ffffffffffffffffffffffffffffffffffffffff1602179055506001600260146101000a81548160ff0219169083151502179055506105e383610d9a565b6105ed8282610e1f565b156106125781600760016101000a81548160ff021916908360ff16021790555061062f565b6001600260156101000a81548160ff021916908360ff1602179055505b505050565b6000600554905090565b6000600654905090565b6000600260159054906101000a900460ff16905090565b6000600354905090565b6000600454905090565b600260149054906101000a900460ff1615151561068f57600080fd5b806003816000191690555050565b600060606106b98460ff166001026106b485610f36565b610f67565b90506106c4816104a5565b600581600019169055507f3e3c48fc0c6dec97879894ce1f81a220f32dd296bb057353c77c1f604813d53c8484600554604051808460ff1660ff168152602001806020018360001916600019168152602001828103825284818151815260200191508051906020019080838360005b8381101561074e578082015181840152602081019050610733565b50505050905090810190601f16801561077b5780820380516001836020036101000a031916815260200191505b5094505050505060405180910390a160035460001916600554600019161415156107a857600091506107ad565b600191505b5092915050565b6000600760019054906101000a900460ff16600760009054906101000a900460ff160360ff1690506000811415610806576003600260156101000a81548160ff021916908360ff160217905550610877565b7fffffffffffffffffffffffffffffffffffffffffffffffffffffffffffffffff8114806108345750600281145b1561085a576001600260156101000a81548160ff021916908360ff160217905550610876565b60028060156101000a81548160ff021916908360ff1602179055505b5b50565b6000600260159054906101000a900460ff1660ff1611151561089b57600080fd5b6001600260159054906101000a900460ff1660ff161415610a1157600160009054906101000a900473ffffffffffffffffffffffffffffffffffffffff1673ffffffffffffffffffffffffffffffffffffffff166108fc6002600854029081150290604051600060405180830381858888f19350505050158015610923573d6000803e3d6000fd5b507f50433cef218ca2423d0d74ef8330a4c23ba2a39d1712e8a3d062afb8f1454b33600260009054906101000a900473ffffffffffffffffffffffffffffffffffffffff16600160009054906101000a900473ffffffffffffffffffffffffffffffffffffffff16600260085402604051808473ffffffffffffffffffffffffffffffffffffffff1673ffffffffffffffffffffffffffffffffffffffff1681526020018373ffffffffffffffffffffffffffffffffffffffff1673ffffffffffffffffffffffffffffffffffffffff168152602001828152602001935050505060405180910390a1610d98565b60028060159054906101000a900460ff1660ff161415610b8657600260009054906101000a900473ffffffffffffffffffffffffffffffffffffffff1673ffffffffffffffffffffffffffffffffffffffff166108fc6002600854029081150290604051600060405180830381858888f19350505050158015610a98573d6000803e3d6000fd5b507f50433cef218ca2423d0d74ef8330a4c23ba2a39d1712e8a3d062afb8f1454b33600160009054906101000a900473ffffffffffffffffffffffffffffffffffffffff16600260009054906101000a900473ffffffffffffffffffffffffffffffffffffffff16600260085402604051808473ffffffffffffffffffffffffffffffffffffffff1673ffffffffffffffffffffffffffffffffffffffff1681526020018373ffffffffffffffffffffffffffffffffffffffff1673ffffffffffffffffffffffffffffffffffffffff168152602001828152602001935050505060405180910390a1610d97565b6003600260159054906101000a900460ff1660ff161415610d9657600160009054906101000a900473ffffffffffffffffffffffffffffffffffffffff1673ffffffffffffffffffffffffffffffffffffffff166108fc6008549081150290604051600060405180830381858888f19350505050158015610c0b573d6000803e3d6000fd5b507ff1921e75509afec0ea9570d5c25b7db1fdc1f2176e5c69b87205c162da18ce01600160009054906101000a900473ffffffffffffffffffffffffffffffffffffffff16600854604051808373ffffffffffffffffffffffffffffffffffffffff1673ffffffffffffffffffffffffffffffffffffffff1681526020018281526020019250505060405180910390a1600260009054906101000a900473ffffffffffffffffffffffffffffffffffffffff1673ffffffffffffffffffffffffffffffffffffffff166108fc6008549081150290604051600060405180830381858888f19350505050158015610d05573d6000803e3d6000fd5b507ff1921e75509afec0ea9570d5c25b7db1fdc1f2176e5c69b87205c162da18ce01600260009054906101000a900473ffffffffffffffffffffffffffffffffffffffff16600854604051808373ffffffffffffffffffffffffffffffffffffffff1673ffffffffffffffffffffffffffffffffffffffff1681526020018281526020019250505060405180910390a15b5b5b565b600260009054906101000a900473ffffffffffffffffffffffffffffffffffffffff1673ffffffffffffffffffffffffffffffffffffffff163373ffffffffffffffffffffffffffffffffffffffff16141515610df657600080fd5b600260149054906101000a900460ff161515610e1157600080fd5b806004816000191690555050565b60006060610e3b8460ff16600102610e3685610f36565b610f67565b9050610e46816104a5565b600681600019169055507fed9a73cbb3369e60e342b782150ea236a256ceb6018c86fc7f44205a9e64d4e18484600654604051808460ff1660ff168152602001806020018360001916600019168152602001828103825284818151815260200191508051906020019080838360005b83811015610ed0578082015181840152602081019050610eb5565b50505050905090810190601f168015610efd5780820380516001836020036101000a031916815260200191505b5094505050505060405180910390a16004546000191660065460001916141515610f2a5760009150610f2f565b600191505b5092915050565b600060606000839150600082511415610f555760006001029250610f60565b602084015190508092505b5050919050565b6060806000806020800160ff166040519080825280601f01601f191660200182016040528015610fa65781602001602082028038833980820191505090505b50925060009150600090505b602060ff16811015611040578581602081101515610fcc57fe5b1a7f010000000000000000000000000000000000000000000000000000000000000002838380600101945081518110151561100357fe5b9060200101907effffffffffffffffffffffffffffffffffffffffffffffffffffffffffffff1916908160001a9053508080600101915050610fb2565b600090505b602060ff168110156110d357848160208110151561105f57fe5b1a7f010000000000000000000000000000000000000000000000000000000000000002838380600101945081518110151561109657fe5b9060200101907effffffffffffffffffffffffffffffffffffffffffffffffffffffffffffff1916908160001a9053508080600101915050611045565b829350505050929150505600a165627a7a723058207f6b3d2d75d7827f01c7ed1e03d28c592ed2b9de90b77f84100ed2aeed40cdb40029",
  "source": "pragma solidity ^0.4.22;\n\ncontract rps{\n    address owner;\n    address hostPlayer;\n    address guestPlayer;\n    bool matching = false; //after matching, true\n    uint8 result = 0; //0:not yet 1:win host 2:win guest 3:draw \n    bytes32 hostSelectHash;\n    bytes32 guestSelectHash;\n    bytes32 hostSubmitHash;\n    bytes32 guestSubmitHash;\n    uint8 hostHand;\n    uint8 guestHand;\n    uint betAmount;\n\n    event HostSubmit(uint8 hand, string rndStr, bytes32 hash);\n    event GuestSubmit(uint8 hand, string rndStr, bytes32 hash);\n    event GameResult(uint result);\n    event MoneyMove(address from, address to, uint sendAmount);\n    event MoneyBack(address to, uint backAmount);\n\n    constructor () public{\n        owner = msg.sender;\n    }\n\n    // call when host player game makes\n    // set hostplayer address, betAmount, and hashValue for hand check\n    function makeGame(bytes32 hashValue) public payable {\n        hostPlayer = msg.sender;\n        betAmount = msg.value;\n        _setHostHash(hashValue);\n    }\n\n    // call when guest player join the game maked by host player\n    // 1. set guestplayer address and guest hashvalue for hand check\n    // 2. check the hash value by hand and rndStr\n    function joinGame(bytes32 hashValue, uint8 hand, string rndStr) public payable{\n        require(msg.sender != hostPlayer); // cannot play with same player\n        require(msg.value == betAmount); // need same bet amount with host\n        guestPlayer = msg.sender;\n        matching = true;\n        _setGuestHash(hashValue);\n        if( _checkGuestHand(hand, rndStr)){\n            guestHand = hand;\n        }\n        else {\n            result = 1; //Guest lose\n        }\n    }\n\n    // call when host player confirm and submit hand\n    // 1. check the hash value by hand and rndStr\n    // 2. rps battle (host hand and guest hand)\n    // 3. money move (loser to winner)\n    function hostSubmitHand(uint8 hand, string rndStr) public{\n        require(msg.sender == hostPlayer);\n        if (_checkHostHand(hand, rndStr)){\n            hostHand = hand;\n        }\n        else{\n            result = 2; //Host lose\n        }\n        if (result == 0){ // if game result is not decided, rps battle start.\n            _rpsBattle();\n        }\n        emit GameResult(result);\n        _moneyMove(); //Money move to winner from loser.\n    }\n\n    // return the game result\n    function getGameResult() public view returns(uint8){\n        return result;\n    }\n\n    function getHostSubmitHash() public view returns(bytes32){\n        return hostSubmitHash;\n    }\n\n    function getGuestSubmitHash() public view returns(bytes32){\n        return guestSubmitHash;\n    }\n\n    function getHostSelectHash() public view returns(bytes32){\n        return hostSelectHash;\n    }\n    function getGuestSelectHash() public view returns(bytes32){\n        return guestSelectHash;\n    }\n \n    function _setHostHash(bytes32 hashValue) private {\n        require(!matching);\n        hostSelectHash = hashValue;\n    }\n\n    function _setGuestHash(bytes32 hashValue) private{\n        require(msg.sender == guestPlayer);\n        require(matching);\n        guestSelectHash = hashValue;\n    }\n\n    function _checkHostHand(uint8 hand, string rndStr) private returns(bool){\n        bytes memory concatStr = _concat(bytes32(hand),_stringToBytes32(rndStr));\n        hostSubmitHash = getHashValue(concatStr);\n        emit HostSubmit(hand, rndStr, hostSubmitHash);\n        if (hostSubmitHash != hostSelectHash){\n            return false;\n        }\n        return true;\n    }\n\n    function _checkGuestHand(uint8 hand, string rndStr) private returns(bool){\n        bytes memory concatStr = _concat(bytes32(hand),_stringToBytes32(rndStr));\n        guestSubmitHash = getHashValue(concatStr);\n        emit GuestSubmit(hand, rndStr, guestSubmitHash);\n        if (guestSubmitHash != guestSelectHash){\n            return false;\n        }\n        return true;\n    }\n\n    function _rpsBattle() private {\n        int diff = hostHand - guestHand;\n        // draw\n        if (diff == 0){\n            result = 3;\n         }\n        // win\n        else if (diff == -1 || diff == 2){\n            result = 1;\n        }\n        // lose\n        else{\n            result = 2;\n        }\n    }\n\n    function _moneyMove() private {\n        require(result > 0);\n        if (result == 1){ //host win\n            hostPlayer.transfer(betAmount*2);\n            emit MoneyMove(guestPlayer, hostPlayer, betAmount*2);\n        }\n        else if (result == 2){ //guest win\n            guestPlayer.transfer(betAmount*2);\n            emit MoneyMove(hostPlayer, guestPlayer, betAmount*2);\n        }\n        else if (result == 3){ //draw\n            hostPlayer.transfer(betAmount);\n            emit MoneyBack(hostPlayer, betAmount);\n            guestPlayer.transfer(betAmount);\n            emit MoneyBack(guestPlayer, betAmount);\n        }    \n    }\n\n    function _concat(bytes32 a, bytes32 b) private pure returns(bytes){\n        bytes memory ab = new bytes(a.length + b.length);\n        uint k = 0;\n        for (uint i = 0; i < a.length; i++) ab[k++] = a[i];\n        for (     i = 0; i < b.length; i++) ab[k++] = b[i];\n        return ab;\n    }\n\n    function _stringToBytes32(string memory source) private pure returns (bytes32) {\n        bytes memory tempEmptyStringTest = bytes(source);\n        bytes32 afterData;\n        if (tempEmptyStringTest.length == 0) {\n            return 0x0;\n        }\n        assembly {\n            afterData := mload(add(source, 32))\n        }\n        return afterData;\n    }\n\n    function getHashValue(bytes byteA) public pure returns (bytes32){\n       return keccak256(byteA);\n    }\n}\n",
  "sourcePath": "/Users/kyo/Ethereum/dapps/1_rps/project/contracts/rps.sol",
  "compiler": {
    "name": "solc",
    "version": "0.4.24+commit.e67f0147.Emscripten.clang"
  },
  "schemaVersion": "2.0.1",
  "updatedAt": "2018-07-06T07:48:36.467Z"
}