{
  "contractName": "rps",
  "abi": [
    {
      "inputs": [],
      "payable": false,
      "stateMutability": "nonpayable",
      "type": "constructor"
    },
    {
      "anonymous": false,
      "inputs": [
        {
          "indexed": false,
          "name": "hand",
          "type": "uint8"
        },
        {
          "indexed": false,
          "name": "rndStr",
          "type": "string"
        },
        {
          "indexed": false,
          "name": "hash",
          "type": "bytes32"
        }
      ],
      "name": "HostSubmit",
      "type": "event"
    },
    {
      "anonymous": false,
      "inputs": [
        {
          "indexed": false,
          "name": "hand",
          "type": "uint8"
        },
        {
          "indexed": false,
          "name": "rndStr",
          "type": "string"
        },
        {
          "indexed": false,
          "name": "hash",
          "type": "bytes32"
        }
      ],
      "name": "GuestSubmit",
      "type": "event"
    },
    {
      "constant": false,
      "inputs": [
        {
          "name": "hashValue",
          "type": "bytes32"
        }
      ],
      "name": "makeGame",
      "outputs": [],
      "payable": true,
      "stateMutability": "payable",
      "type": "function"
    },
    {
      "constant": false,
      "inputs": [
        {
          "name": "hashValue",
          "type": "bytes32"
        },
        {
          "name": "hand",
          "type": "uint8"
        },
        {
          "name": "rndStr",
          "type": "string"
        }
      ],
      "name": "joinGame",
      "outputs": [],
      "payable": true,
      "stateMutability": "payable",
      "type": "function"
    },
    {
      "constant": false,
      "inputs": [
        {
          "name": "hand",
          "type": "uint8"
        },
        {
          "name": "rndStr",
          "type": "string"
        }
      ],
      "name": "hostSubmitAndResult",
      "outputs": [],
      "payable": false,
      "stateMutability": "nonpayable",
      "type": "function"
    },
    {
      "constant": true,
      "inputs": [],
      "name": "getHostSubmitHash",
      "outputs": [
        {
          "name": "",
          "type": "bytes32"
        }
      ],
      "payable": false,
      "stateMutability": "view",
      "type": "function"
    },
    {
      "constant": true,
      "inputs": [],
      "name": "getGuestSubmitHash",
      "outputs": [
        {
          "name": "",
          "type": "bytes32"
        }
      ],
      "payable": false,
      "stateMutability": "view",
      "type": "function"
    }
  ],
  "bytecode": "0x60806040526000600260146101000a81548160ff0219169083151502179055506000600260156101000a81548160ff021916908360ff16021790555034801561004757600080fd5b50336000806101000a81548173ffffffffffffffffffffffffffffffffffffffff021916908373ffffffffffffffffffffffffffffffffffffffff160217905550610c4e806100976000396000f30060806040526004361061006d576000357c0100000000000000000000000000000000000000000000000000000000900463ffffffff1680632e5e5b15146100725780638a52a7bb146100965780639ed62ad01461010d578063a63a82d514610140578063e7872c3414610173575b600080fd5b61009460048036038101908080356000191690602001909291905050506101e9565b005b61010b6004803603810190808035600019169060200190929190803560ff169060200190929190803590602001908201803590602001908080601f016020809104026020016040519081016040528093929190818152602001838380828437820191505050505050919291929050505061023d565b005b34801561011957600080fd5b50610122610360565b60405180826000191660001916815260200191505060405180910390f35b34801561014c57600080fd5b5061015561036a565b60405180826000191660001916815260200191505060405180910390f35b34801561017f57600080fd5b506101e7600480360381019080803560ff169060200190929190803590602001908201803590602001908080601f0160208091040260200160405190810160405280939291908181526020018383808284378201915050505050509192919290505050610374565b005b33600160006101000a81548173ffffffffffffffffffffffffffffffffffffffff021916908373ffffffffffffffffffffffffffffffffffffffff1602179055503460088190555061023a81610438565b50565b600160009054906101000a900473ffffffffffffffffffffffffffffffffffffffff1673ffffffffffffffffffffffffffffffffffffffff163373ffffffffffffffffffffffffffffffffffffffff161415151561029a57600080fd5b600854341415156102aa57600080fd5b33600260006101000a81548173ffffffffffffffffffffffffffffffffffffffff021916908373ffffffffffffffffffffffffffffffffffffffff1602179055506001600260146101000a81548160ff02191690831515021790555061030f83610462565b61031982826104e7565b1561033e5781600760016101000a81548160ff021916908360ff16021790555061035b565b6001600260156101000a81548160ff021916908360ff1602179055505b505050565b6000600554905090565b6000600654905090565b600160009054906101000a900473ffffffffffffffffffffffffffffffffffffffff1673ffffffffffffffffffffffffffffffffffffffff163373ffffffffffffffffffffffffffffffffffffffff161415156103d057600080fd5b6103da8282610697565b156103ff5781600760006101000a81548160ff021916908360ff16021790555061041b565b60028060156101000a81548160ff021916908360ff1602179055505b6000600260159054906101000a90505050610434610847565b5050565b600260149054906101000a900460ff1615151561045457600080fd5b806003816000191690555050565b600260009054906101000a900473ffffffffffffffffffffffffffffffffffffffff1673ffffffffffffffffffffffffffffffffffffffff163373ffffffffffffffffffffffffffffffffffffffff161415156104be57600080fd5b600260149054906101000a900460ff1615156104d957600080fd5b806004816000191690555050565b600060606105038460ff166001026104fe85610a79565b610aaa565b90506002816040518082805190602001908083835b60208310151561053d5780518252602082019150602081019050602083039250610518565b6001836020036101000a0380198251168184511680821785525050505050509050019150506020604051808303816000865af1158015610581573d6000803e3d6000fd5b5050506040513d602081101561059657600080fd5b8101908080519060200190929190505050600681600019169055507fed9a73cbb3369e60e342b782150ea236a256ceb6018c86fc7f44205a9e64d4e18484600654604051808460ff1660ff168152602001806020018360001916600019168152602001828103825284818151815260200191508051906020019080838360005b83811015610631578082015181840152602081019050610616565b50505050905090810190601f16801561065e5780820380516001836020036101000a031916815260200191505b5094505050505060405180910390a1600454600019166006546000191614151561068b5760009150610690565b600191505b5092915050565b600060606106b38460ff166001026106ae85610a79565b610aaa565b90506002816040518082805190602001908083835b6020831015156106ed57805182526020820191506020810190506020830392506106c8565b6001836020036101000a0380198251168184511680821785525050505050509050019150506020604051808303816000865af1158015610731573d6000803e3d6000fd5b5050506040513d602081101561074657600080fd5b8101908080519060200190929190505050600581600019169055507f3e3c48fc0c6dec97879894ce1f81a220f32dd296bb057353c77c1f604813d53c8484600554604051808460ff1660ff168152602001806020018360001916600019168152602001828103825284818151815260200191508051906020019080838360005b838110156107e15780820151818401526020810190506107c6565b50505050905090810190601f16801561080e5780820380516001836020036101000a031916815260200191505b5094505050505060405180910390a1600354600019166005546000191614151561083b5760009150610840565b600191505b5092915050565b6000600260159054906101000a900460ff1660ff1611151561086857600080fd5b6001600260159054906101000a900460ff1660ff1614156108f657600160009054906101000a900473ffffffffffffffffffffffffffffffffffffffff1673ffffffffffffffffffffffffffffffffffffffff166108fc6002600854029081150290604051600060405180830381858888f193505050501580156108f0573d6000803e3d6000fd5b50610a77565b60028060159054906101000a900460ff1660ff16141561098357600260009054906101000a900473ffffffffffffffffffffffffffffffffffffffff1673ffffffffffffffffffffffffffffffffffffffff166108fc6002600854029081150290604051600060405180830381858888f1935050505015801561097d573d6000803e3d6000fd5b50610a76565b6003600260159054906101000a900460ff1660ff161415610a7557600160009054906101000a900473ffffffffffffffffffffffffffffffffffffffff1673ffffffffffffffffffffffffffffffffffffffff166108fc6008549081150290604051600060405180830381858888f19350505050158015610a08573d6000803e3d6000fd5b50600260009054906101000a900473ffffffffffffffffffffffffffffffffffffffff1673ffffffffffffffffffffffffffffffffffffffff166108fc6008549081150290604051600060405180830381858888f19350505050158015610a73573d6000803e3d6000fd5b505b5b5b565b600060606000839150600082511415610a985760006001029250610aa3565b602084015190508092505b5050919050565b6060806000806020800160ff166040519080825280601f01601f191660200182016040528015610ae95781602001602082028038833980820191505090505b50925060009150600090505b602060ff16811015610b83578581602081101515610b0f57fe5b1a7f0100000000000000000000000000000000000000000000000000000000000000028383806001019450815181101515610b4657fe5b9060200101907effffffffffffffffffffffffffffffffffffffffffffffffffffffffffffff1916908160001a9053508080600101915050610af5565b600090505b602060ff16811015610c16578481602081101515610ba257fe5b1a7f0100000000000000000000000000000000000000000000000000000000000000028383806001019450815181101515610bd957fe5b9060200101907effffffffffffffffffffffffffffffffffffffffffffffffffffffffffffff1916908160001a9053508080600101915050610b88565b829350505050929150505600a165627a7a72305820a69c2575e05f791fdae09f79fd5c0468dd4f27b4e7058ffdb552c28a6d9295090029",
  "source": "pragma solidity ^0.4.22;\r\n\r\ncontract rps{\r\n    address owner;\r\n    address hostPlayer;\r\n    address guestPlayer;\r\n    bool matching = false; //after matching, true\r\n    uint8 result = 0; //0:not yet 1:win host 2:win guest 3:draw \r\n    bytes32 hostSelectHash;\r\n    bytes32 guestSelectHash;\r\n    bytes32 hostSubmitHash;\r\n    bytes32 guestSubmitHash;\r\n    uint8 hostHand;\r\n    uint8 guestHand;\r\n    uint betAmount;\r\n\r\n    event HostSubmit(uint8 hand, string rndStr, bytes32 hash);\r\n    event GuestSubmit(uint8 hand, string rndStr, bytes32 hash);\r\n\r\n    constructor () public{\r\n        owner = msg.sender;\r\n    }\r\n\r\n    // call when host player game makes\r\n    // set hostplayer address, betAmount, and hashValue for hand check\r\n    function makeGame(bytes32 hashValue) public payable {\r\n        hostPlayer = msg.sender;\r\n        betAmount = msg.value;\r\n        _setHostHash(hashValue);\r\n    }\r\n\r\n    // call when guest player join the game maked by host player\r\n    // 1. set guestplayer address and guest hashvalue for hand check\r\n    // 2. check the hash value by hand and rndStr\r\n    function joinGame(bytes32 hashValue, uint8 hand, string rndStr) public payable{\r\n        require(msg.sender != hostPlayer); // cannot play with same player\r\n        require(msg.value == betAmount); // need same bet amount with host\r\n        guestPlayer = msg.sender;\r\n        matching = true;\r\n        _setGuestHash(hashValue);\r\n        if( _checkGuestHand(hand, rndStr)){\r\n            guestHand = hand;\r\n        }\r\n        else {\r\n            result = 1; //Guest lose\r\n        }\r\n    }\r\n\r\n    // call when host player confirm and submit hand\r\n    // 1. check the hash value by hand and rndStr\r\n    // 2. rps battle (host hand and guest hand)\r\n    // 3. money move (loser to winner)\r\n    function hostSubmitAndResult(uint8 hand, string rndStr) public{\r\n        require(msg.sender == hostPlayer);\r\n        if (_checkHostHand(hand, rndStr)){\r\n            hostHand = hand;\r\n        }\r\n        else{\r\n            result = 2; //Host lose\r\n        }\r\n        if (result == 0){\r\n            _rpsBattle;\r\n        }\r\n        _moneyMove();\r\n    }\r\n\r\n    function getHostSubmitHash() public view returns(bytes32){\r\n        return hostSubmitHash;\r\n    }\r\n\r\n    function getGuestSubmitHash() public view returns(bytes32){\r\n        return guestSubmitHash;\r\n    }\r\n \r\n    function _setHostHash(bytes32 hashValue) private {\r\n        require(!matching);\r\n        hostSelectHash = hashValue;\r\n    }\r\n\r\n    function _setGuestHash(bytes32 hashValue) private{\r\n        require(msg.sender == guestPlayer);\r\n        require(matching);\r\n        guestSelectHash = hashValue;\r\n    }\r\n\r\n    function _checkHostHand(uint8 hand, string rndStr) private returns(bool){\r\n        bytes memory concatStr = _concat(bytes32(hand),_stringToBytes32(rndStr));\r\n        hostSubmitHash = sha256(concatStr);\r\n        HostSubmit(hand, rndStr, hostSubmitHash);\r\n        if (hostSubmitHash != hostSelectHash){\r\n            return false;\r\n        }\r\n        return true;\r\n    }\r\n\r\n    function _checkGuestHand(uint8 hand, string rndStr) private returns(bool){\r\n        bytes memory concatStr = _concat(bytes32(hand),_stringToBytes32(rndStr));\r\n        guestSubmitHash = sha256(concatStr);\r\n        GuestSubmit(hand, rndStr, guestSubmitHash);\r\n        if (guestSubmitHash != guestSelectHash){\r\n            return false;\r\n        }\r\n        return true;\r\n    }\r\n\r\n    function _rpsBattle() private {\r\n        int diff = hostHand - guestHand;\r\n        // draw\r\n        if (diff == 0){\r\n            result = 3;\r\n         }\r\n        // win\r\n        else if (diff == -1 || diff == 2){\r\n            result = 1;\r\n        }\r\n        // lose\r\n        else{\r\n            result = 2;\r\n        }\r\n    }\r\n\r\n    function _moneyMove() private {\r\n        require(result > 0);\r\n        if (result == 1){ //host win\r\n            hostPlayer.transfer(betAmount*2);\r\n        }\r\n        else if (result == 2){ //guest win\r\n            guestPlayer.transfer(betAmount*2);\r\n        }\r\n        else if (result == 3){ //draw\r\n            hostPlayer.transfer(betAmount);\r\n            guestPlayer.transfer(betAmount);\r\n        }    \r\n    }\r\n\r\n    function _concat(bytes32 a, bytes32 b) private pure returns(bytes){\r\n        bytes memory ab = new bytes(a.length + b.length);\r\n        uint k = 0;\r\n        for (uint i = 0; i < a.length; i++) ab[k++] = a[i];\r\n        for (     i = 0; i < b.length; i++) ab[k++] = b[i];\r\n        return ab;\r\n    }\r\n\r\n    function _stringToBytes32(string memory source) private pure returns (bytes32) {\r\n        bytes memory tempEmptyStringTest = bytes(source);\r\n        bytes32 afterData;\r\n        if (tempEmptyStringTest.length == 0) {\r\n            return 0x0;\r\n        }\r\n        assembly {\r\n            afterData := mload(add(source, 32))\r\n        }\r\n        return afterData;\r\n    }\r\n}\r\n",
  "sourcePath": "F:\\ethereum\\dapps\\2_rpc\\project\\contracts\\rps.sol",
  "compiler": {
    "name": "solc",
    "version": "0.4.24+commit.e67f0147.Emscripten.clang"
  },
  "schemaVersion": "2.0.0",
  "updatedAt": "2018-06-30T06:36:26.765Z"
}