{
  "contractName": "rps",
  "abi": [
    {
      "inputs": [],
      "payable": false,
      "stateMutability": "nonpayable",
      "type": "constructor"
    },
    {
      "constant": false,
      "inputs": [
        {
          "name": "hashValue",
          "type": "bytes32"
        }
      ],
      "name": "makeGame",
      "outputs": [],
      "payable": true,
      "stateMutability": "payable",
      "type": "function"
    },
    {
      "constant": false,
      "inputs": [
        {
          "name": "hashValue",
          "type": "bytes32"
        },
        {
          "name": "hand",
          "type": "uint8"
        },
        {
          "name": "rndStr",
          "type": "string"
        }
      ],
      "name": "joinGame",
      "outputs": [],
      "payable": true,
      "stateMutability": "payable",
      "type": "function"
    },
    {
      "constant": false,
      "inputs": [
        {
          "name": "hand",
          "type": "uint8"
        },
        {
          "name": "rndStr",
          "type": "string"
        }
      ],
      "name": "hostSubmitAndResult",
      "outputs": [],
      "payable": false,
      "stateMutability": "nonpayable",
      "type": "function"
    }
  ],
  "bytecode": "0x60806040526000600260146101000a81548160ff0219169083151502179055506000600260156101000a81548160ff021916908360ff16021790555034801561004757600080fd5b50336000806101000a81548173ffffffffffffffffffffffffffffffffffffffff021916908373ffffffffffffffffffffffffffffffffffffffff160217905550610a3d806100976000396000f300608060405260043610610057576000357c0100000000000000000000000000000000000000000000000000000000900463ffffffff1680632e5e5b151461005c5780638a52a7bb14610080578063e7872c34146100f7575b600080fd5b61007e600480360381019080803560001916906020019092919050505061016d565b005b6100f56004803603810190808035600019169060200190929190803560ff169060200190929190803590602001908201803590602001908080601f01602080910402602001604051908101604052809392919081815260200183838082843782019150505050505091929192905050506101c1565b005b34801561010357600080fd5b5061016b600480360381019080803560ff169060200190929190803590602001908201803590602001908080601f01602080910402602001604051908101604052809392919081815260200183838082843782019150505050505091929192905050506102e5565b005b33600160006101000a81548173ffffffffffffffffffffffffffffffffffffffff021916908373ffffffffffffffffffffffffffffffffffffffff160217905550346006819055506101be816103a9565b50565b600160009054906101000a900473ffffffffffffffffffffffffffffffffffffffff1673ffffffffffffffffffffffffffffffffffffffff163373ffffffffffffffffffffffffffffffffffffffff161415151561021e57600080fd5b6006543414151561022e57600080fd5b33600260006101000a81548173ffffffffffffffffffffffffffffffffffffffff021916908373ffffffffffffffffffffffffffffffffffffffff1602179055506001600260146101000a81548160ff021916908315150217905550610293836103d3565b5061029e828261045c565b156102c35781600560016101000a81548160ff021916908360ff1602179055506102e0565b6001600260156101000a81548160ff021916908360ff1602179055505b505050565b600160009054906101000a900473ffffffffffffffffffffffffffffffffffffffff1673ffffffffffffffffffffffffffffffffffffffff163373ffffffffffffffffffffffffffffffffffffffff1614151561034157600080fd5b61034b8282610549565b156103705781600560006101000a81548160ff021916908360ff16021790555061038c565b60028060156101000a81548160ff021916908360ff1602179055505b6000600260159054906101000a905050506103a5610636565b5050565b600260149054906101000a900460ff161515156103c557600080fd5b806003816000191690555050565b6000600260009054906101000a900473ffffffffffffffffffffffffffffffffffffffff1673ffffffffffffffffffffffffffffffffffffffff163373ffffffffffffffffffffffffffffffffffffffff1614151561043157600080fd5b600260149054906101000a900460ff16151561044c57600080fd5b8160048160001916905550919050565b60006060600061047a8560ff1660010261047586610868565b610899565b91506002826040518082805190602001908083835b6020831015156104b4578051825260208201915060208101905060208303925061048f565b6001836020036101000a0380198251168184511680821785525050505050509050019150506020604051808303816000865af11580156104f8573d6000803e3d6000fd5b5050506040513d602081101561050d57600080fd5b8101908080519060200190929190505050905060045460001916816000191614151561053c5760009250610541565b600192505b505092915050565b6000606060006105678560ff1660010261056286610868565b610899565b91506002826040518082805190602001908083835b6020831015156105a1578051825260208201915060208101905060208303925061057c565b6001836020036101000a0380198251168184511680821785525050505050509050019150506020604051808303816000865af11580156105e5573d6000803e3d6000fd5b5050506040513d60208110156105fa57600080fd5b81019080805190602001909291905050509050600354600019168160001916141515610629576000925061062e565b600192505b505092915050565b6000600260159054906101000a900460ff1660ff1611151561065757600080fd5b6001600260159054906101000a900460ff1660ff1614156106e557600160009054906101000a900473ffffffffffffffffffffffffffffffffffffffff1673ffffffffffffffffffffffffffffffffffffffff166108fc6002600654029081150290604051600060405180830381858888f193505050501580156106df573d6000803e3d6000fd5b50610866565b60028060159054906101000a900460ff1660ff16141561077257600260009054906101000a900473ffffffffffffffffffffffffffffffffffffffff1673ffffffffffffffffffffffffffffffffffffffff166108fc6002600654029081150290604051600060405180830381858888f1935050505015801561076c573d6000803e3d6000fd5b50610865565b6003600260159054906101000a900460ff1660ff16141561086457600160009054906101000a900473ffffffffffffffffffffffffffffffffffffffff1673ffffffffffffffffffffffffffffffffffffffff166108fc6006549081150290604051600060405180830381858888f193505050501580156107f7573d6000803e3d6000fd5b50600260009054906101000a900473ffffffffffffffffffffffffffffffffffffffff1673ffffffffffffffffffffffffffffffffffffffff166108fc6006549081150290604051600060405180830381858888f19350505050158015610862573d6000803e3d6000fd5b505b5b5b565b6000606060008391506000825114156108875760006001029250610892565b602084015190508092505b5050919050565b6060806000806020800160ff166040519080825280601f01601f1916602001820160405280156108d85781602001602082028038833980820191505090505b50925060009150600090505b602060ff168110156109725785816020811015156108fe57fe5b1a7f010000000000000000000000000000000000000000000000000000000000000002838380600101945081518110151561093557fe5b9060200101907effffffffffffffffffffffffffffffffffffffffffffffffffffffffffffff1916908160001a90535080806001019150506108e4565b600090505b602060ff16811015610a0557848160208110151561099157fe5b1a7f01000000000000000000000000000000000000000000000000000000000000000283838060010194508151811015156109c857fe5b9060200101907effffffffffffffffffffffffffffffffffffffffffffffffffffffffffffff1916908160001a9053508080600101915050610977565b829350505050929150505600a165627a7a723058204ca5c311f7cd24b565d0411a29b7e7eb11bbdf8d7caedeead8e2af168ec040980029",
  "source": "pragma solidity ^0.4.22;\r\n\r\ncontract rps{\r\n    address owner;\r\n    address hostPlayer;\r\n    address guestPlayer;\r\n    bool matching = false; //after matching, true\r\n    uint8 result = 0; //0:not yet 1:win host 2:win guest 3:draw \r\n    bytes32 hostSelectHash;\r\n    bytes32 guestSelectHash;\r\n    uint8 hostHand;\r\n    uint8 guestHand;\r\n    uint betAmount;\r\n\r\n    constructor () public{\r\n        owner = msg.sender;\r\n    }\r\n\r\n    // call when host player game makes\r\n    // set hostplayer address, betAmount, and hashValue for hand check\r\n    function makeGame(bytes32 hashValue) public payable {\r\n        hostPlayer = msg.sender;\r\n        betAmount = msg.value;\r\n        _setHostHash(hashValue);\r\n    }\r\n\r\n    // call when guest player join the game maked by host player\r\n    // 1. set guestplayer address and guest hashvalue for hand check\r\n    // 2. check the hash value by hand and rndStr\r\n    function joinGame(bytes32 hashValue, uint8 hand, string rndStr) public payable{\r\n        require(msg.sender != hostPlayer); // cannot play with same player\r\n        require(msg.value == betAmount); // need same bet amount with host\r\n        guestPlayer = msg.sender;\r\n        matching = true;\r\n        _setGuestHash(hashValue);\r\n        if( _checkGuestHand(hand, rndStr)){\r\n            guestHand = hand;\r\n        }\r\n        else {\r\n            result = 1; //Guest lose\r\n        }\r\n    }\r\n\r\n    // call when host player confirm and submit hand\r\n    // 1. check the hash value by hand and rndStr\r\n    // 2. rps battle (host hand and guest hand)\r\n    // 3. money move (loser to winner)\r\n    function hostSubmitAndResult(uint8 hand, string rndStr) public{\r\n        require(msg.sender == hostPlayer);\r\n        if (_checkHostHand(hand, rndStr)){\r\n            hostHand = hand;\r\n        }\r\n        else{\r\n            result = 2; //Host lose\r\n        }\r\n        if (result == 0){\r\n            _rpsBattle;\r\n        }\r\n        _moneyMove();\r\n    }\r\n \r\n    function _setHostHash(bytes32 hashValue) private {\r\n        require(!matching);\r\n        hostSelectHash = hashValue;\r\n    }\r\n\r\n    function _setGuestHash(bytes32 hashValue) private returns(bool){\r\n        require(msg.sender == guestPlayer);\r\n        require(matching);\r\n        guestSelectHash = hashValue;\r\n    }\r\n\r\n    function _checkHostHand(uint8 hand, string rndStr) private view returns(bool){\r\n        bytes memory concatStr = _concat(bytes32(hand),_stringToBytes32(rndStr));\r\n        bytes32 submitHash = sha256(concatStr);\r\n        if (submitHash != hostSelectHash){\r\n            return false;\r\n        }\r\n        return true;\r\n    }\r\n\r\n    function _checkGuestHand(uint8 hand, string rndStr) private view returns(bool){\r\n        bytes memory concatStr = _concat(bytes32(hand),_stringToBytes32(rndStr));\r\n        bytes32 submitHash = sha256(concatStr);\r\n        if (submitHash != guestSelectHash){\r\n            return false;\r\n        }\r\n        return true;\r\n    }\r\n\r\n    function _rpsBattle() private {\r\n        int diff = hostHand - guestHand;\r\n        // draw\r\n        if (diff == 0){\r\n            result = 3;\r\n         }\r\n        // win\r\n        else if (diff == -1 || diff == 2){\r\n            result = 1;\r\n        }\r\n        // lose\r\n        else{\r\n            result = 2;\r\n        }\r\n    }\r\n\r\n    function _moneyMove() private {\r\n        require(result > 0);\r\n        if (result == 1){ //host win\r\n            hostPlayer.transfer(betAmount*2);\r\n        }\r\n        else if (result == 2){ //guest win\r\n            guestPlayer.transfer(betAmount*2);\r\n        }\r\n        else if (result == 3){ //draw\r\n            hostPlayer.transfer(betAmount);\r\n            guestPlayer.transfer(betAmount);\r\n        }    \r\n    }\r\n\r\n    function _concat(bytes32 a, bytes32 b) private pure returns(bytes){\r\n        bytes memory ab = new bytes(a.length + b.length);\r\n        uint k = 0;\r\n        for (uint i = 0; i < a.length; i++) ab[k++] = a[i];\r\n        for (     i = 0; i < b.length; i++) ab[k++] = b[i];\r\n        return ab;\r\n    }\r\n\r\n    function _stringToBytes32(string memory source) private pure returns (bytes32) {\r\n        bytes memory tempEmptyStringTest = bytes(source);\r\n        bytes32 afterData;\r\n        if (tempEmptyStringTest.length == 0) {\r\n            return 0x0;\r\n        }\r\n        assembly {\r\n            afterData := mload(add(source, 32))\r\n        }\r\n        return afterData;\r\n    }\r\n}\r\n",
  "sourcePath": "F:\\ethereum\\dapps\\2_rpc\\project\\contracts\\rps.sol",
  "compiler": {
    "name": "solc",
    "version": "0.4.24+commit.e67f0147.Emscripten.clang"
  },
  "schemaVersion": "2.0.0",
  "updatedAt": "2018-06-24T10:27:07.219Z"
}