{
  "contractName": "rps",
  "abi": [
    {
      "inputs": [],
      "payable": false,
      "stateMutability": "nonpayable",
      "type": "constructor"
    },
    {
      "anonymous": false,
      "inputs": [
        {
          "indexed": false,
          "name": "hand",
          "type": "uint8"
        },
        {
          "indexed": false,
          "name": "rndStr",
          "type": "string"
        },
        {
          "indexed": false,
          "name": "hash",
          "type": "bytes32"
        }
      ],
      "name": "HostSubmit",
      "type": "event"
    },
    {
      "anonymous": false,
      "inputs": [
        {
          "indexed": false,
          "name": "hand",
          "type": "uint8"
        },
        {
          "indexed": false,
          "name": "rndStr",
          "type": "string"
        },
        {
          "indexed": false,
          "name": "hash",
          "type": "bytes32"
        }
      ],
      "name": "GuestSubmit",
      "type": "event"
    },
    {
      "anonymous": false,
      "inputs": [
        {
          "indexed": false,
          "name": "result",
          "type": "uint256"
        }
      ],
      "name": "GameResult",
      "type": "event"
    },
    {
      "anonymous": false,
      "inputs": [
        {
          "indexed": false,
          "name": "from",
          "type": "address"
        },
        {
          "indexed": false,
          "name": "to",
          "type": "address"
        },
        {
          "indexed": false,
          "name": "sendAmount",
          "type": "uint256"
        }
      ],
      "name": "MoneyMove",
      "type": "event"
    },
    {
      "anonymous": false,
      "inputs": [
        {
          "indexed": false,
          "name": "to",
          "type": "address"
        },
        {
          "indexed": false,
          "name": "backAmount",
          "type": "uint256"
        }
      ],
      "name": "MoneyBack",
      "type": "event"
    },
    {
      "constant": false,
      "inputs": [
        {
          "name": "hashValue",
          "type": "bytes32"
        }
      ],
      "name": "makeGame",
      "outputs": [],
      "payable": true,
      "stateMutability": "payable",
      "type": "function"
    },
    {
      "constant": false,
      "inputs": [
        {
          "name": "hashValue",
          "type": "bytes32"
        },
        {
          "name": "hand",
          "type": "uint8"
        },
        {
          "name": "rndStr",
          "type": "string"
        }
      ],
      "name": "joinGame",
      "outputs": [],
      "payable": true,
      "stateMutability": "payable",
      "type": "function"
    },
    {
      "constant": false,
      "inputs": [
        {
          "name": "hand",
          "type": "uint8"
        },
        {
          "name": "rndStr",
          "type": "string"
        }
      ],
      "name": "hostSubmitHand",
      "outputs": [],
      "payable": false,
      "stateMutability": "nonpayable",
      "type": "function"
    },
    {
      "constant": true,
      "inputs": [],
      "name": "getGameResult",
      "outputs": [
        {
          "name": "",
          "type": "uint8"
        }
      ],
      "payable": false,
      "stateMutability": "view",
      "type": "function"
    },
    {
      "constant": true,
      "inputs": [],
      "name": "getGamePhase",
      "outputs": [
        {
          "name": "",
          "type": "uint8"
        }
      ],
      "payable": false,
      "stateMutability": "view",
      "type": "function"
    },
    {
      "constant": false,
      "inputs": [],
      "name": "resetGame",
      "outputs": [],
      "payable": false,
      "stateMutability": "nonpayable",
      "type": "function"
    },
    {
      "constant": true,
      "inputs": [],
      "name": "getHostEthHash",
      "outputs": [
        {
          "name": "",
          "type": "bytes32"
        }
      ],
      "payable": false,
      "stateMutability": "view",
      "type": "function"
    },
    {
      "constant": true,
      "inputs": [],
      "name": "getGuestEthHash",
      "outputs": [
        {
          "name": "",
          "type": "bytes32"
        }
      ],
      "payable": false,
      "stateMutability": "view",
      "type": "function"
    },
    {
      "constant": true,
      "inputs": [],
      "name": "getHostClientHash",
      "outputs": [
        {
          "name": "",
          "type": "bytes32"
        }
      ],
      "payable": false,
      "stateMutability": "view",
      "type": "function"
    },
    {
      "constant": true,
      "inputs": [],
      "name": "getGuestClientHash",
      "outputs": [
        {
          "name": "",
          "type": "bytes32"
        }
      ],
      "payable": false,
      "stateMutability": "view",
      "type": "function"
    },
    {
      "constant": true,
      "inputs": [
        {
          "name": "byteA",
          "type": "bytes"
        }
      ],
      "name": "getHashValue",
      "outputs": [
        {
          "name": "",
          "type": "bytes32"
        }
      ],
      "payable": false,
      "stateMutability": "pure",
      "type": "function"
    }
  ],
  "bytecode": "0x60806040526000600260146101000a81548160ff021916908360ff1602179055506000600260156101000a81548160ff021916908360ff16021790555034801561004857600080fd5b50336000806101000a81548173ffffffffffffffffffffffffffffffffffffffff021916908373ffffffffffffffffffffffffffffffffffffffff160217905550611732806100986000396000f3006080604052600436106100af576000357c0100000000000000000000000000000000000000000000000000000000900463ffffffff16806328363ff3146100b45780632e5e5b15146100e75780633ee22d2e1461010b5780635205a52f1461013e578063762b81fb146101b45780638a52a7bb146102395780639e856d93146102b0578063b3fb14ad146102e1578063bb47221914610312578063e4aa8df514610329578063e7eb85dc1461035c575b600080fd5b3480156100c057600080fd5b506100c961038f565b60405180826000191660001916815260200191505060405180910390f35b6101096004803603810190808035600019169060200190929190505050610399565b005b34801561011757600080fd5b506101206104b9565b60405180826000191660001916815260200191505060405180910390f35b34801561014a57600080fd5b506101b2600480360381019080803560ff169060200190929190803590602001908201803590602001908080601f01602080910402602001604051908101604052809392919081815260200183838082843782019150505050505091929192905050506104c3565b005b3480156101c057600080fd5b5061021b600480360381019080803590602001908201803590602001908080601f01602080910402602001604051908101604052809392919081815260200183838082843782019150505050505091929192905050506106f1565b60405180826000191660001916815260200191505060405180910390f35b6102ae6004803603810190808035600019169060200190929190803560ff169060200190929190803590602001908201803590602001908080601f016020809104026020016040519081016040528093929190818152602001838380828437820191505050505050919291929050505061075d565b005b3480156102bc57600080fd5b506102c5610a28565b604051808260ff1660ff16815260200191505060405180910390f35b3480156102ed57600080fd5b506102f6610a3f565b604051808260ff1660ff16815260200191505060405180910390f35b34801561031e57600080fd5b50610327610b06565b005b34801561033557600080fd5b5061033e610cb0565b60405180826000191660001916815260200191505060405180910390f35b34801561036857600080fd5b50610371610cba565b60405180826000191660001916815260200191505060405180910390f35b6000600654905090565b6000600260159054906101000a900460ff1660ff16141515610449576040517f08c379a000000000000000000000000000000000000000000000000000000000815260040180806020018281038252602a8152602001807f7265717569726564206265666f72652067616d65206d616b696e67202867616d81526020017f6550686173653d3d30290000000000000000000000000000000000000000000081525060400191505060405180910390fd5b33600160006101000a81548173ffffffffffffffffffffffffffffffffffffffff021916908373ffffffffffffffffffffffffffffffffffffffff1602179055503460088190555061049a81610cc4565b6001600260156101000a81548160ff021916908360ff16021790555050565b6000600554905090565b60028060159054906101000a900460ff1660ff1614151561054c576040517f08c379a000000000000000000000000000000000000000000000000000000000815260040180806020018281038252601b8152602001807f7265717569726564206166746572206775657374206a6f696e6564000000000081525060200191505060405180910390fd5b600160009054906101000a900473ffffffffffffffffffffffffffffffffffffffff1673ffffffffffffffffffffffffffffffffffffffff163373ffffffffffffffffffffffffffffffffffffffff16141515610611576040517f08c379a000000000000000000000000000000000000000000000000000000000815260040180806020018281038252600f8152602001807f6f6e6c7920686f7374506c61796572000000000000000000000000000000000081525060200191505060405180910390fd5b61061b8282610cd2565b156106405781600760006101000a81548160ff021916908360ff16021790555061065c565b60028060146101000a81548160ff021916908360ff1602179055505b6000600260149054906101000a900460ff1660ff1614156106805761067f610de9565b5b7fdd70a6ea8a03765f9fb41f847122dcaab5764ecb37187278123ecb3a09180088600260149054906101000a900460ff16604051808260ff16815260200191505060405180910390a16106d1610eaf565b6003600260156101000a81548160ff021916908360ff1602179055505050565b6000816040518082805190602001908083835b6020831015156107295780518252602082019150602081019050602083039250610704565b6001836020036101000a03801982511681845116808217855250505050505090500191505060405180910390209050919050565b6001600260159054906101000a900460ff1660ff1614151561080d576040517f08c379a00000000000000000000000000000000000000000000000000000000081526004018080602001828103825260298152602001807f7265717569726564206166746572206d616b696e672067616d65202867616d6581526020017f50686173653d3d3129000000000000000000000000000000000000000000000081525060400191505060405180910390fd5b600160009054906101000a900473ffffffffffffffffffffffffffffffffffffffff1673ffffffffffffffffffffffffffffffffffffffff163373ffffffffffffffffffffffffffffffffffffffff16141515156108d3576040517f08c379a000000000000000000000000000000000000000000000000000000000815260040180806020018281038252601c8152602001807f63616e6e6f7420706c617920776974682073616d6520706c617965720000000081525060200191505060405180910390fd5b60085434141515610972576040517f08c379a000000000000000000000000000000000000000000000000000000000815260040180806020018281038252602e8152602001807f72657175697265207468652073616d6520616d6f756e74206f6620626574416d81526020017f6f756e74207769746820686f737400000000000000000000000000000000000081525060400191505060405180910390fd5b33600260006101000a81548173ffffffffffffffffffffffffffffffffffffffff021916908373ffffffffffffffffffffffffffffffffffffffff1602179055506109bc83611438565b6109c68282611446565b156109eb5781600760016101000a81548160ff021916908360ff160217905550610a08565b6001600260146101000a81548160ff021916908360ff1602179055505b60028060156101000a81548160ff021916908360ff160217905550505050565b6000600260159054906101000a900460ff16905090565b60006003600260159054906101000a900460ff1660ff16141515610af1576040517f08c379a00000000000000000000000000000000000000000000000000000000081526004018080602001828103825260228152602001807f726571756972656420616674657220686f7374207375626d697465642068616e81526020017f642e00000000000000000000000000000000000000000000000000000000000081525060400191505060405180910390fd5b600260149054906101000a900460ff16905090565b6000600260156101000a81548160ff021916908360ff1602179055506000600260146101000a81548160ff021916908360ff1602179055506000600160006101000a81548173ffffffffffffffffffffffffffffffffffffffff021916908373ffffffffffffffffffffffffffffffffffffffff1602179055506000600260006101000a81548173ffffffffffffffffffffffffffffffffffffffff021916908373ffffffffffffffffffffffffffffffffffffffff1602179055506000600760006101000a81548160ff021916908360ff1602179055506000600760016101000a81548160ff021916908360ff16021790555060006008819055507f3078000000000000000000000000000000000000000000000000000000000000600381600019169055507f3078000000000000000000000000000000000000000000000000000000000000600481600019169055507f3078000000000000000000000000000000000000000000000000000000000000600581600019169055507f307800000000000000000000000000000000000000000000000000000000000060068160001916905550565b6000600454905090565b6000600354905090565b806003816000191690555050565b60006060610cee8460ff16600102610ce98561155d565b61158e565b9050610cf9816106f1565b600581600019169055507f3e3c48fc0c6dec97879894ce1f81a220f32dd296bb057353c77c1f604813d53c8484600554604051808460ff1660ff168152602001806020018360001916600019168152602001828103825284818151815260200191508051906020019080838360005b83811015610d83578082015181840152602081019050610d68565b50505050905090810190601f168015610db05780820380516001836020036101000a031916815260200191505b5094505050505060405180910390a16003546000191660055460001916141515610ddd5760009150610de2565b600191505b5092915050565b6000600760019054906101000a900460ff16600760009054906101000a900460ff160360ff1690506000811415610e3b576003600260146101000a81548160ff021916908360ff160217905550610eac565b7fffffffffffffffffffffffffffffffffffffffffffffffffffffffffffffffff811480610e695750600281145b15610e8f576001600260146101000a81548160ff021916908360ff160217905550610eab565b60028060146101000a81548160ff021916908360ff1602179055505b5b50565b6000600260149054906101000a900460ff1660ff16111515610f39576040517f08c379a000000000000000000000000000000000000000000000000000000000815260040180806020018281038252601e8152602001807f726571756972652072707320626174746c652069732066696e6973686564000081525060200191505060405180910390fd5b6001600260149054906101000a900460ff1660ff1614156110af57600160009054906101000a900473ffffffffffffffffffffffffffffffffffffffff1673ffffffffffffffffffffffffffffffffffffffff166108fc6002600854029081150290604051600060405180830381858888f19350505050158015610fc1573d6000803e3d6000fd5b507f50433cef218ca2423d0d74ef8330a4c23ba2a39d1712e8a3d062afb8f1454b33600260009054906101000a900473ffffffffffffffffffffffffffffffffffffffff16600160009054906101000a900473ffffffffffffffffffffffffffffffffffffffff16600260085402604051808473ffffffffffffffffffffffffffffffffffffffff1673ffffffffffffffffffffffffffffffffffffffff1681526020018373ffffffffffffffffffffffffffffffffffffffff1673ffffffffffffffffffffffffffffffffffffffff168152602001828152602001935050505060405180910390a1611436565b60028060149054906101000a900460ff1660ff16141561122457600260009054906101000a900473ffffffffffffffffffffffffffffffffffffffff1673ffffffffffffffffffffffffffffffffffffffff166108fc6002600854029081150290604051600060405180830381858888f19350505050158015611136573d6000803e3d6000fd5b507f50433cef218ca2423d0d74ef8330a4c23ba2a39d1712e8a3d062afb8f1454b33600160009054906101000a900473ffffffffffffffffffffffffffffffffffffffff16600260009054906101000a900473ffffffffffffffffffffffffffffffffffffffff16600260085402604051808473ffffffffffffffffffffffffffffffffffffffff1673ffffffffffffffffffffffffffffffffffffffff1681526020018373ffffffffffffffffffffffffffffffffffffffff1673ffffffffffffffffffffffffffffffffffffffff168152602001828152602001935050505060405180910390a1611435565b6003600260149054906101000a900460ff1660ff16141561143457600160009054906101000a900473ffffffffffffffffffffffffffffffffffffffff1673ffffffffffffffffffffffffffffffffffffffff166108fc6008549081150290604051600060405180830381858888f193505050501580156112a9573d6000803e3d6000fd5b507ff1921e75509afec0ea9570d5c25b7db1fdc1f2176e5c69b87205c162da18ce01600160009054906101000a900473ffffffffffffffffffffffffffffffffffffffff16600854604051808373ffffffffffffffffffffffffffffffffffffffff1673ffffffffffffffffffffffffffffffffffffffff1681526020018281526020019250505060405180910390a1600260009054906101000a900473ffffffffffffffffffffffffffffffffffffffff1673ffffffffffffffffffffffffffffffffffffffff166108fc6008549081150290604051600060405180830381858888f193505050501580156113a3573d6000803e3d6000fd5b507ff1921e75509afec0ea9570d5c25b7db1fdc1f2176e5c69b87205c162da18ce01600260009054906101000a900473ffffffffffffffffffffffffffffffffffffffff16600854604051808373ffffffffffffffffffffffffffffffffffffffff1673ffffffffffffffffffffffffffffffffffffffff1681526020018281526020019250505060405180910390a15b5b5b565b806004816000191690555050565b600060606114628460ff1660010261145d8561155d565b61158e565b905061146d816106f1565b600681600019169055507fed9a73cbb3369e60e342b782150ea236a256ceb6018c86fc7f44205a9e64d4e18484600654604051808460ff1660ff168152602001806020018360001916600019168152602001828103825284818151815260200191508051906020019080838360005b838110156114f75780820151818401526020810190506114dc565b50505050905090810190601f1680156115245780820380516001836020036101000a031916815260200191505b5094505050505060405180910390a160045460001916600654600019161415156115515760009150611556565b600191505b5092915050565b60006060600083915060008251141561157c5760006001029250611587565b602084015190508092505b5050919050565b6060806000806020800160ff166040519080825280601f01601f1916602001820160405280156115cd5781602001602082028038833980820191505090505b50925060009150600090505b602060ff168110156116675785816020811015156115f357fe5b1a7f010000000000000000000000000000000000000000000000000000000000000002838380600101945081518110151561162a57fe5b9060200101907effffffffffffffffffffffffffffffffffffffffffffffffffffffffffffff1916908160001a90535080806001019150506115d9565b600090505b602060ff168110156116fa57848160208110151561168657fe5b1a7f01000000000000000000000000000000000000000000000000000000000000000283838060010194508151811015156116bd57fe5b9060200101907effffffffffffffffffffffffffffffffffffffffffffffffffffffffffffff1916908160001a905350808060010191505061166c565b829350505050929150505600a165627a7a723058209c9e07ab75d641f1d551cb214e8aa9b81628cce38131a34c98556e9753ccab660029",
  "source": "pragma solidity ^0.4.22;\n\ncontract rps{\n    address owner;\n    address hostPlayer;\n    address guestPlayer;\n    uint8 result = 0; //0:not yet 1:win host 2:win guest 3:draw \n    // gamePhase\n    //0:before game start\n    //1:after making game(host) \n    //2:after guest joined game and submit hand(guest)\n    //3:aftr host submited hand and game is finished.\n    uint8 gamePhase = 0; \n    bytes32 hostClientHash;\n    bytes32 guestClientHash;\n    bytes32 hostEthHash;\n    bytes32 guestEthHash;\n    uint8 hostHand;\n    uint8 guestHand;\n    uint betAmount;\n\n    event HostSubmit(uint8 hand, string rndStr, bytes32 hash);\n    event GuestSubmit(uint8 hand, string rndStr, bytes32 hash);\n    event GameResult(uint result);\n    event MoneyMove(address from, address to, uint sendAmount);\n    event MoneyBack(address to, uint backAmount);\n\n    constructor () public{\n        owner = msg.sender;\n    }\n\n    // call when host player game makes\n    // set hostplayer address, betAmount, and hashValue for hand check\n    function makeGame(bytes32 hashValue) public payable {\n        require(gamePhase == 0,\"required before game making (gamePhase==0)\");\n        hostPlayer = msg.sender;\n        betAmount = msg.value;\n        _setHostClientHash(hashValue);\n        gamePhase = 1;\n    }\n\n    // call when guest player join the game maked by host player\n    // 1. set guestplayer address and guest hashvalue for hand check\n    // 2. check the hash value by hand and rndStr\n    function joinGame(bytes32 hashValue, uint8 hand, string rndStr) public payable{\n        require(gamePhase == 1,\"required after making game (gamePhase==1)\");\n        require(msg.sender != hostPlayer,\"cannot play with same player\");\n        require(msg.value == betAmount,\"require the same amount of betAmount with host\");\n        guestPlayer = msg.sender;\n        _setGuestClientHash(hashValue);\n        if( _checkGuestHand(hand, rndStr)){\n            guestHand = hand;\n        }\n        else {\n            result = 1; //Guest lose\n        }\n        gamePhase = 2;\n    }\n\n    // call when host player confirm and submit hand\n    // 1. check the hash value by hand and rndStr\n    // 2. rps battle (host hand and guest hand)\n    // 3. money move (loser to winner)\n    function hostSubmitHand(uint8 hand, string rndStr) public{\n        require(gamePhase == 2,\"required after guest joined\");\n        require(msg.sender == hostPlayer,\"only hostPlayer\");\n        if (_checkHostHand(hand, rndStr)){\n            hostHand = hand;\n        }\n        else{\n            result = 2; //Host lose\n        }\n        if (result == 0){ // if game result is not decided, rps battle start.\n            _rpsBattle();\n        }\n        emit GameResult(result);\n        _moneyMove(); //Money move to winner from loser.\n        gamePhase = 3;\n    }\n\n    // return the game result\n    function getGameResult() public view returns(uint8){\n        require(gamePhase == 3,\"required after host submited hand.\");\n        return result;\n    }\n\n    // return the game phase\n    function getGamePhase() public view returns(uint8){\n        return gamePhase;\n    }\n\n    function resetGame() public{\n        //require(msg.sender == owner); //when real, need this reauire\n        gamePhase = 0;\n        result = 0;\n        hostPlayer = 0x0;\n        guestPlayer = 0x0;\n        hostHand = 0;\n        guestHand = 0;\n        betAmount = 0;\n        hostClientHash = \"0x\";\n        guestClientHash = \"0x\";\n        hostEthHash = \"0x\";\n        guestEthHash = \"0x\";\n    }\n\n\n    function getHostEthHash() public view returns(bytes32){\n        return hostEthHash;\n    }\n\n    function getGuestEthHash() public view returns(bytes32){\n        return guestEthHash;\n    }\n\n    function getHostClientHash() public view returns(bytes32){\n        return hostClientHash;\n    }\n    function getGuestClientHash() public view returns(bytes32){\n        return guestClientHash;\n    }\n \n    function _setHostClientHash(bytes32 hashValue) private {\n        hostClientHash = hashValue;\n    }\n\n    function _setGuestClientHash(bytes32 hashValue) private{\n        guestClientHash = hashValue;\n    }\n\n    function _checkHostHand(uint8 hand, string rndStr) private returns(bool){\n        bytes memory concatStr = _concat(bytes32(hand),_stringToBytes32(rndStr));\n        hostEthHash = getHashValue(concatStr);\n        emit HostSubmit(hand, rndStr, hostEthHash);\n        if (hostEthHash != hostClientHash){\n            return false;\n        }\n        return true;\n    }\n\n    function _checkGuestHand(uint8 hand, string rndStr) private returns(bool){\n        bytes memory concatStr = _concat(bytes32(hand),_stringToBytes32(rndStr));\n        guestEthHash = getHashValue(concatStr);\n        emit GuestSubmit(hand, rndStr, guestEthHash);\n        if (guestEthHash != guestClientHash){\n            return false;\n        }\n        return true;\n    }\n\n    function _rpsBattle() private {\n        int diff = hostHand - guestHand;\n        // draw\n        if (diff == 0){\n            result = 3;\n         }\n        // win\n        else if (diff == -1 || diff == 2){\n            result = 1;\n        }\n        // lose\n        else{\n            result = 2;\n        }\n    }\n\n    function _moneyMove() private {\n        require(result > 0,\"require rps battle is finished\");\n        if (result == 1){ //host win\n            hostPlayer.transfer(betAmount*2);\n            emit MoneyMove(guestPlayer, hostPlayer, betAmount*2);\n        }\n        else if (result == 2){ //guest win\n            guestPlayer.transfer(betAmount*2);\n            emit MoneyMove(hostPlayer, guestPlayer, betAmount*2);\n        }\n        else if (result == 3){ //draw\n            hostPlayer.transfer(betAmount);\n            emit MoneyBack(hostPlayer, betAmount);\n            guestPlayer.transfer(betAmount);\n            emit MoneyBack(guestPlayer, betAmount);\n        }    \n    }\n\n    function _concat(bytes32 a, bytes32 b) private pure returns(bytes){\n        bytes memory ab = new bytes(a.length + b.length);\n        uint k = 0;\n        for (uint i = 0; i < a.length; i++) ab[k++] = a[i];\n        for (     i = 0; i < b.length; i++) ab[k++] = b[i];\n        return ab;\n    }\n\n    function _stringToBytes32(string memory source) private pure returns (bytes32) {\n        bytes memory tempEmptyStringTest = bytes(source);\n        bytes32 afterData;\n        if (tempEmptyStringTest.length == 0) {\n            return 0x0;\n        }\n        assembly {\n            afterData := mload(add(source, 32))\n        }\n        return afterData;\n    }\n\n    function getHashValue(bytes byteA) public pure returns (bytes32){\n       return keccak256(byteA);\n    }\n}\n",
  "sourcePath": "/Users/kyo/Ethereum/dapps/1_rps/project/contracts/rps.sol",
  "compiler": {
    "name": "solc",
    "version": "0.4.24+commit.e67f0147.Emscripten.clang"
  },
  "schemaVersion": "2.0.1",
  "updatedAt": "2018-07-13T05:46:43.639Z"
}