{
  "contractName": "rps",
  "abi": [
    {
      "inputs": [
        {
          "name": "hashValue",
          "type": "bytes32"
        }
      ],
      "payable": true,
      "stateMutability": "payable",
      "type": "constructor"
    },
    {
      "constant": false,
      "inputs": [
        {
          "name": "hashValue",
          "type": "bytes32"
        },
        {
          "name": "hand",
          "type": "uint8"
        },
        {
          "name": "rndStr",
          "type": "string"
        }
      ],
      "name": "joinGame",
      "outputs": [],
      "payable": true,
      "stateMutability": "payable",
      "type": "function"
    },
    {
      "constant": false,
      "inputs": [
        {
          "name": "hand",
          "type": "uint8"
        },
        {
          "name": "rndStr",
          "type": "string"
        }
      ],
      "name": "hostSubmitAndResult",
      "outputs": [],
      "payable": false,
      "stateMutability": "nonpayable",
      "type": "function"
    }
  ],
  "bytecode": "0x60806040526000600160146101000a81548160ff0219169083151502179055506000600160156101000a81548160ff021916908360ff160217905550604051602080610a8683398101806040528101908080519060200190929190505050336000806101000a81548173ffffffffffffffffffffffffffffffffffffffff021916908373ffffffffffffffffffffffffffffffffffffffff160217905550346005819055506100bc816100c2640100000000026401000000009004565b506100ec565b600160149054906101000a900460ff161515156100de57600080fd5b806002816000191690555050565b61098b806100fb6000396000f30060806040526004361061004c576000357c0100000000000000000000000000000000000000000000000000000000900463ffffffff1680638a52a7bb14610051578063e7872c34146100c8575b600080fd5b6100c66004803603810190808035600019169060200190929190803560ff169060200190929190803590602001908201803590602001908080601f016020809104026020016040519081016040528093929190818152602001838380828437820191505050505050919291929050505061013e565b005b3480156100d457600080fd5b5061013c600480360381019080803560ff169060200190929190803590602001908201803590602001908080601f016020809104026020016040519081016040528093929190818152602001838380828437820191505050505050919291929050505061025f565b005b6000809054906101000a900473ffffffffffffffffffffffffffffffffffffffff1673ffffffffffffffffffffffffffffffffffffffff163373ffffffffffffffffffffffffffffffffffffffff161415151561019a57600080fd5b600554341415156101aa57600080fd5b33600160006101000a81548173ffffffffffffffffffffffffffffffffffffffff021916908373ffffffffffffffffffffffffffffffffffffffff16021790555060018060146101000a81548160ff02191690831515021790555061020e83610323565b5061021982826103ac565b1561023e5781600460016101000a81548160ff021916908360ff16021790555061025a565b60018060156101000a81548160ff021916908360ff1602179055505b505050565b6000809054906101000a900473ffffffffffffffffffffffffffffffffffffffff1673ffffffffffffffffffffffffffffffffffffffff163373ffffffffffffffffffffffffffffffffffffffff161415156102ba57600080fd5b6102c48282610499565b156102e95781600460006101000a81548160ff021916908360ff160217905550610306565b6002600160156101000a81548160ff021916908360ff1602179055505b6000600160159054906101000a9050505061031f610586565b5050565b6000600160009054906101000a900473ffffffffffffffffffffffffffffffffffffffff1673ffffffffffffffffffffffffffffffffffffffff163373ffffffffffffffffffffffffffffffffffffffff1614151561038157600080fd5b600160149054906101000a900460ff16151561039c57600080fd5b8160038160001916905550919050565b6000606060006103ca8560ff166001026103c5866107b6565b6107e7565b91506002826040518082805190602001908083835b60208310151561040457805182526020820191506020810190506020830392506103df565b6001836020036101000a0380198251168184511680821785525050505050509050019150506020604051808303816000865af1158015610448573d6000803e3d6000fd5b5050506040513d602081101561045d57600080fd5b8101908080519060200190929190505050905060035460001916816000191614151561048c5760009250610491565b600192505b505092915050565b6000606060006104b78560ff166001026104b2866107b6565b6107e7565b91506002826040518082805190602001908083835b6020831015156104f157805182526020820191506020810190506020830392506104cc565b6001836020036101000a0380198251168184511680821785525050505050509050019150506020604051808303816000865af1158015610535573d6000803e3d6000fd5b5050506040513d602081101561054a57600080fd5b81019080805190602001909291905050509050600254600019168160001916141515610579576000925061057e565b600192505b505092915050565b6000600160159054906101000a900460ff1660ff161115156105a757600080fd5b60018060159054906101000a900460ff1660ff161415610633576000809054906101000a900473ffffffffffffffffffffffffffffffffffffffff1673ffffffffffffffffffffffffffffffffffffffff166108fc6002600554029081150290604051600060405180830381858888f1935050505015801561062d573d6000803e3d6000fd5b506107b4565b6002600160159054906101000a900460ff1660ff1614156106c157600160009054906101000a900473ffffffffffffffffffffffffffffffffffffffff1673ffffffffffffffffffffffffffffffffffffffff166108fc6002600554029081150290604051600060405180830381858888f193505050501580156106bb573d6000803e3d6000fd5b506107b3565b6003600160159054906101000a900460ff1660ff1614156107b2576000809054906101000a900473ffffffffffffffffffffffffffffffffffffffff1673ffffffffffffffffffffffffffffffffffffffff166108fc6005549081150290604051600060405180830381858888f19350505050158015610745573d6000803e3d6000fd5b50600160009054906101000a900473ffffffffffffffffffffffffffffffffffffffff1673ffffffffffffffffffffffffffffffffffffffff166108fc6005549081150290604051600060405180830381858888f193505050501580156107b0573d6000803e3d6000fd5b505b5b5b565b6000606060008391506000825114156107d557600060010292506107e0565b602084015190508092505b5050919050565b6060806000806020800160ff166040519080825280601f01601f1916602001820160405280156108265781602001602082028038833980820191505090505b50925060009150600090505b602060ff168110156108c057858160208110151561084c57fe5b1a7f010000000000000000000000000000000000000000000000000000000000000002838380600101945081518110151561088357fe5b9060200101907effffffffffffffffffffffffffffffffffffffffffffffffffffffffffffff1916908160001a9053508080600101915050610832565b600090505b602060ff168110156109535784816020811015156108df57fe5b1a7f010000000000000000000000000000000000000000000000000000000000000002838380600101945081518110151561091657fe5b9060200101907effffffffffffffffffffffffffffffffffffffffffffffffffffffffffffff1916908160001a90535080806001019150506108c5565b829350505050929150505600a165627a7a7230582029bd559f39ab1c3e1a02d7967e97c6992061bc2f58407d94e647a5895aca83c10029",
  "source": "pragma solidity ^0.4.22;\r\n\r\ncontract rps{\r\n    address hostPlayer;\r\n    address guestPlayer;\r\n    bool matching = false; //after matching, true\r\n    uint8 result = 0; //0:not yet 1:win host 2:win guest 3:draw \r\n    bytes32 hostSelectHash;\r\n    bytes32 guestSelectHash;\r\n    uint8 hostHand;\r\n    uint8 guestHand;\r\n    uint betAmount;\r\n\r\n    constructor (bytes32 hashValue) public payable {\r\n        hostPlayer = msg.sender;\r\n        betAmount = msg.value;\r\n        _setHostHash(hashValue);\r\n    }\r\n\r\n    function joinGame(bytes32 hashValue, uint8 hand, string rndStr) public payable{\r\n        require(msg.sender != hostPlayer); // cannot play with same player\r\n        require(msg.value == betAmount); // need same bet amount with host\r\n        guestPlayer = msg.sender;\r\n        matching = true;\r\n        _setGuestHash(hashValue);\r\n        if( _checkGuestHand(hand, rndStr)){\r\n            guestHand = hand;\r\n        }\r\n        else {\r\n            result = 1; //Guest lose\r\n        }\r\n    }\r\n\r\n    function hostSubmitAndResult(uint8 hand, string rndStr) public{\r\n        require(msg.sender == hostPlayer);\r\n        if (_checkHostHand(hand, rndStr)){\r\n            hostHand = hand;\r\n        }\r\n        else{\r\n            result = 2; //Host lose\r\n        }\r\n        if (result == 0){\r\n            _rpsBattle;\r\n        }\r\n        _moneyMove();\r\n    }\r\n \r\n    function _setHostHash(bytes32 hashValue) private {\r\n        require(!matching);\r\n        hostSelectHash = hashValue;\r\n    }\r\n\r\n    function _setGuestHash(bytes32 hashValue) private returns(bool){\r\n        require(msg.sender == guestPlayer);\r\n        require(matching);\r\n        guestSelectHash = hashValue;\r\n    }\r\n\r\n    function _checkHostHand(uint8 hand, string rndStr) private view returns(bool){\r\n        bytes memory concatStr = _concat(bytes32(hand),_stringToBytes32(rndStr));\r\n        bytes32 submitHash = sha256(concatStr);\r\n        if (submitHash != hostSelectHash){\r\n            return false;\r\n        }\r\n        return true;\r\n    }\r\n\r\n    function _checkGuestHand(uint8 hand, string rndStr) private view returns(bool){\r\n        bytes memory concatStr = _concat(bytes32(hand),_stringToBytes32(rndStr));\r\n        bytes32 submitHash = sha256(concatStr);\r\n        if (submitHash != guestSelectHash){\r\n            return false;\r\n        }\r\n        return true;\r\n    }\r\n\r\n    function _rpsBattle() private {\r\n        int diff = hostHand - guestHand;\r\n        // draw\r\n        if (diff == 0){\r\n            result = 3;\r\n         }\r\n        // win\r\n        else if (diff == -1 || diff == 2){\r\n            result = 1;\r\n        }\r\n        // lose\r\n        else{\r\n            result = 2;\r\n        }\r\n    }\r\n\r\n    function _moneyMove() private {\r\n        require(result > 0);\r\n        if (result == 1){ //host win\r\n            hostPlayer.transfer(betAmount*2);\r\n        }\r\n        else if (result == 2){ //guest win\r\n            guestPlayer.transfer(betAmount*2);\r\n        }\r\n        else if (result == 3){ //draw\r\n            hostPlayer.transfer(betAmount);\r\n            guestPlayer.transfer(betAmount);\r\n        }    \r\n    }\r\n\r\n    function _concat(bytes32 a, bytes32 b) private pure returns(bytes){\r\n        bytes memory ab = new bytes(a.length + b.length);\r\n        uint k = 0;\r\n        for (uint i = 0; i < a.length; i++) ab[k++] = a[i];\r\n        for (     i = 0; i < b.length; i++) ab[k++] = b[i];\r\n        return ab;\r\n    }\r\n\r\n    function _stringToBytes32(string memory source) private pure returns (bytes32) {\r\n        bytes memory tempEmptyStringTest = bytes(source);\r\n        bytes32 afterData;\r\n        if (tempEmptyStringTest.length == 0) {\r\n            return 0x0;\r\n        }\r\n        assembly {\r\n            afterData := mload(add(source, 32))\r\n        }\r\n        return afterData;\r\n    }\r\n}\r\n",
  "sourcePath": "F:\\ethereum\\dapps\\2_rpc\\project\\contracts\\rps.sol",
  "compiler": {
    "name": "solc",
    "version": "0.4.24+commit.e67f0147.Emscripten.clang"
  },
  "schemaVersion": "2.0.0",
  "updatedAt": "2018-06-23T19:26:18.164Z"
}