{
  "contractName": "rps",
  "abi": [
    {
      "inputs": [],
      "payable": true,
      "stateMutability": "payable",
      "type": "constructor"
    },
    {
      "constant": false,
      "inputs": [],
      "name": "joinGame",
      "outputs": [],
      "payable": true,
      "stateMutability": "payable",
      "type": "function"
    },
    {
      "constant": false,
      "inputs": [
        {
          "name": "hashValue",
          "type": "bytes32"
        }
      ],
      "name": "setHostHash",
      "outputs": [],
      "payable": false,
      "stateMutability": "nonpayable",
      "type": "function"
    },
    {
      "constant": false,
      "inputs": [
        {
          "name": "hashValue",
          "type": "bytes32"
        }
      ],
      "name": "setGuestHash",
      "outputs": [],
      "payable": false,
      "stateMutability": "nonpayable",
      "type": "function"
    },
    {
      "constant": false,
      "inputs": [
        {
          "name": "hand",
          "type": "uint8"
        },
        {
          "name": "rndStr",
          "type": "string"
        }
      ],
      "name": "submitHostHand",
      "outputs": [],
      "payable": false,
      "stateMutability": "nonpayable",
      "type": "function"
    },
    {
      "constant": false,
      "inputs": [
        {
          "name": "hand",
          "type": "uint8"
        },
        {
          "name": "rndStr",
          "type": "string"
        }
      ],
      "name": "submitGuestHand",
      "outputs": [],
      "payable": false,
      "stateMutability": "nonpayable",
      "type": "function"
    }
  ],
  "bytecode": "0x60806040526000600160146101000a81548160ff0219169083151502179055506000600160156101000a81548160ff021916908360ff160217905550336000806101000a81548173ffffffffffffffffffffffffffffffffffffffff021916908373ffffffffffffffffffffffffffffffffffffffff16021790555034600581905550610877806100916000396000f30060806040526004361061006d576000357c0100000000000000000000000000000000000000000000000000000000900463ffffffff1680632f005aa81461007257806391007f7a146100a3578063d4f77b1c14610119578063dd19116314610123578063ed89804514610199575b600080fd5b34801561007e57600080fd5b506100a160048036038101908080356000191690602001909291905050506101ca565b005b3480156100af57600080fd5b50610117600480360381019080803560ff169060200190929190803590602001908201803590602001908080601f016020809104026020016040519081016040528093929190818152602001838380828437820191505050505050919291929050505061024f565b005b6101216103be565b005b34801561012f57600080fd5b50610197600480360381019080803560ff169060200190929190803590602001908201803590602001908080601f01602080910402602001604051908101604052809392919081815260200183838082843782019150505050505091929192905050506104b1565b005b3480156101a557600080fd5b506101c8600480360381019080803560001916906020019092919050505061061e565b005b600160009054906101000a900473ffffffffffffffffffffffffffffffffffffffff1673ffffffffffffffffffffffffffffffffffffffff163373ffffffffffffffffffffffffffffffffffffffff1614151561022657600080fd5b600160149054906101000a900460ff16151561024157600080fd5b806003816000191690555050565b60606000600160009054906101000a900473ffffffffffffffffffffffffffffffffffffffff1673ffffffffffffffffffffffffffffffffffffffff163373ffffffffffffffffffffffffffffffffffffffff161415156102af57600080fd5b6102c78460ff166001026102c2856106a2565b6106d3565b91506002826040518082805190602001908083835b60208310151561030157805182526020820191506020810190506020830392506102dc565b6001836020036101000a0380198251168184511680821785525050505050509050019150506020604051808303816000865af1158015610345573d6000803e3d6000fd5b5050506040513d602081101561035a57600080fd5b8101908080519060200190929190505050905060035460001916816000191614151561039d576002600160156101000a81548160ff021916908360ff1602179055505b83600460016101000a81548160ff021916908360ff16021790555050505050565b6000809054906101000a900473ffffffffffffffffffffffffffffffffffffffff1673ffffffffffffffffffffffffffffffffffffffff163373ffffffffffffffffffffffffffffffffffffffff161415151561041a57600080fd5b6005543414151561042a57600080fd5b6002600554023073ffffffffffffffffffffffffffffffffffffffff163114151561045457600080fd5b33600160006101000a81548173ffffffffffffffffffffffffffffffffffffffff021916908373ffffffffffffffffffffffffffffffffffffffff16021790555060018060146101000a81548160ff021916908315150217905550565b606060008060009054906101000a900473ffffffffffffffffffffffffffffffffffffffff1673ffffffffffffffffffffffffffffffffffffffff163373ffffffffffffffffffffffffffffffffffffffff1614151561051057600080fd5b6105288460ff16600102610523856106a2565b6106d3565b91506002826040518082805190602001908083835b602083101515610562578051825260208201915060208101905060208303925061053d565b6001836020036101000a0380198251168184511680821785525050505050509050019150506020604051808303816000865af11580156105a6573d6000803e3d6000fd5b5050506040513d60208110156105bb57600080fd5b810190808051906020019092919050505090506002546000191681600019161415156105fd5760018060156101000a81548160ff021916908360ff1602179055505b83600460006101000a81548160ff021916908360ff16021790555050505050565b6000809054906101000a900473ffffffffffffffffffffffffffffffffffffffff1673ffffffffffffffffffffffffffffffffffffffff163373ffffffffffffffffffffffffffffffffffffffff1614151561067957600080fd5b600160149054906101000a900460ff16151561069457600080fd5b806002816000191690555050565b6000606060008391506000825114156106c157600060010292506106cc565b602084015190508092505b5050919050565b6060806000806020800160ff166040519080825280601f01601f1916602001820160405280156107125781602001602082028038833980820191505090505b50925060009150600090505b602060ff168110156107ac57858160208110151561073857fe5b1a7f010000000000000000000000000000000000000000000000000000000000000002838380600101945081518110151561076f57fe5b9060200101907effffffffffffffffffffffffffffffffffffffffffffffffffffffffffffff1916908160001a905350808060010191505061071e565b600090505b602060ff1681101561083f5784816020811015156107cb57fe5b1a7f010000000000000000000000000000000000000000000000000000000000000002838380600101945081518110151561080257fe5b9060200101907effffffffffffffffffffffffffffffffffffffffffffffffffffffffffffff1916908160001a90535080806001019150506107b1565b829350505050929150505600a165627a7a72305820c1f2af2b22895caf72f47cffb1e9f614c7a60daca24ceb17d936fa188d2cdbfb0029",
  "source": "pragma solidity ^0.4.22;\r\n\r\ncontract rps{\r\n  address hostPlayer;\r\n  address guestPlayer;\r\n  bool matching = false; //after matching, true\r\n  uint8 result = 0; //0:not yet 1:win host 2:win guest 3:draw \r\n  bytes32 hostSelectHash;\r\n  bytes32 guestSelectHash;\r\n  uint8 hostHand;\r\n  uint8 guestHand;\r\n  uint betAmount;\r\n\r\n  constructor () public payable {\r\n    hostPlayer = msg.sender;\r\n    betAmount = msg.value;\r\n  }\r\n\r\n  function joinGame() public payable{\r\n    require(msg.sender != hostPlayer); // cannot play with same player\r\n    require(msg.value == betAmount); // need same bet amount with host\r\n    require(address(this).balance == betAmount*2);\r\n    guestPlayer = msg.sender;\r\n    matching = true;\r\n  }\r\n \r\n  function setHostHash(bytes32 hashValue) public {\r\n    require(msg.sender == hostPlayer);\r\n    require(matching);\r\n    hostSelectHash = hashValue;\r\n  }\r\n\r\n  function setGuestHash(bytes32 hashValue) public {\r\n    require(msg.sender == guestPlayer);\r\n    require(matching);\r\n    guestSelectHash = hashValue;\r\n  }\r\n\r\n  function submitHostHand(uint8 hand, string rndStr) public {\r\n    require(msg.sender == hostPlayer);\r\n    bytes memory concatStr = concat(bytes32(hand),stringToBytes32(rndStr));\r\n    bytes32 submitHash = sha256(concatStr);\r\n    if (submitHash != hostSelectHash){\r\n      result = 1;\r\n    }\r\n    hostHand = hand;\r\n  }\r\n\r\n  function submitGuestHand(uint8 hand, string rndStr) public {\r\n    require(msg.sender == guestPlayer);\r\n    bytes memory concatStr = concat(bytes32(hand),stringToBytes32(rndStr));\r\n    bytes32 submitHash = sha256(concatStr);\r\n    if (submitHash != guestSelectHash){\r\n      result = 2;\r\n    }\r\n    guestHand = hand;\r\n  }\r\n\r\n  function rpsBattle() private {\r\n    int diff = hostHand - guestHand;\r\n    // draw\r\n    if (diff == 0){\r\n      result = 3;\r\n    }\r\n    // win\r\n    else if (diff == -1 || diff == 2){\r\n      result = 1;\r\n    }\r\n    // lose\r\n    else{\r\n      result = 2;\r\n    }\r\n  }\r\n\r\n  function moneyMove() private {\r\n    require(result > 0);\r\n    if (result == 1){ //host win\r\n      hostPlayer.transfer(betAmount*2);\r\n    }\r\n    else if (result == 2){ //guest win\r\n      guestPlayer.transfer(betAmount*2);\r\n    }\r\n    else if (result == 3){ //draw\r\n      hostPlayer.transfer(betAmount);\r\n      guestPlayer.transfer(betAmount);\r\n    }    \r\n  }\r\n\r\n  function concat(bytes32 a, bytes32 b) private pure returns(bytes){\r\n    bytes memory ab = new bytes(a.length + b.length);\r\n    uint k = 0;\r\n    for (uint i = 0; i < a.length; i++) ab[k++] = a[i];\r\n    for (     i = 0; i < b.length; i++) ab[k++] = b[i];\r\n    return ab;\r\n  }\r\n\r\n  function stringToBytes32(string memory source) private pure returns (bytes32) {\r\n    bytes memory tempEmptyStringTest = bytes(source);\r\n    bytes32 afterData;\r\n    if (tempEmptyStringTest.length == 0) {\r\n      return 0x0;\r\n    }\r\n    assembly {\r\n      afterData := mload(add(source, 32))\r\n    }\r\n    return afterData;\r\n  }\t\r\n}\r\n",
  "sourcePath": "F:\\ethereum\\dapps\\2_rpc\\project\\contracts\\rps.sol",
  "compiler": {
    "name": "solc",
    "version": "0.4.24+commit.e67f0147.Emscripten.clang"
  },
  "schemaVersion": "2.0.0",
  "updatedAt": "2018-06-23T07:13:28.589Z"
}